:04000000803114280F
:100008007E1480314E01961E0A280B2812288C1E59
:100018000E280F2812288331C12380317E10090051
:100028008031162862308400003085000730843122
:1000380013248031A03084000030850020308431C2
:10004800132480317E1040018231B62A4001B21B50
:100058002E283028013031280030BC003C08031914
:10006800362837283C28B109B209B10A0319B20A5F
:10007800E51F3F28402845280130B6000030B7006A
:1000880049286508B7006408B6006308B900620823
:10009800B8003C080319512852286628FF30B807D1
:1000A800FF30B93D3C08031D5A285B2860282B30D7
:1000B800B4000030B50064282D30B4000030B5001D
:1000C8003408BC001F30BA000030BB004101BF013A
:1000D800A428FF304001BA07FF30BB3D3A08A03ED4
:1000E800860087010A30F0000030F1003208F30082
:1000F8003108F20082312B2280317108F800700833
:10010800F7008331802380317708303E8100FF304B
:100118004001B607FF30B73DFF30B807FF30B93DA3
:100128000A30F0000030F1003208F3003108F20024
:1001380081316F21803171084001B2007008B1002F
:1001480040013B08803AB30080303302031DAE28DB
:1001580001303A02031CB128B228C62840013108F0
:100168003204031DB828B9286D283708803AB3002F
:1001780080303302031DC228013036020318C52817
:10018800C6286D2840013C080319CB28CC28D6285E
:10019800FF30BA07FF30BB3D3A08A03E8600870112
:1001A8003C0881003008A7002F08A6003A08A03EA6
:1001B800A8003908AA003808A90082317E228031B7
:1001C800080040013F0886008701403FC100413FC9
:1001D800C20041088400420885001200253A031D28
:1001E800F628F72854293F0886008701013081073F
:1001F80041310318810AE201E301031000300318BA
:100208000130E600FF30E400FF30E5003F088600DB
:100218008701403FC900413FCA00490884004A0895
:1002280085001200643A03191A291B29252949084F
:1002380084004A0885001200693A031D24292529EB
:100248004A29400886008701010884008501023098
:100258008107003FC500013FC6004908013EC100B3
:1002680000304A3DC2003F08860087014108C03F70
:100278004208C13F3E08B0003D08AF004608B20042
:100288004508B10080312A2080316E2940013F089D
:10029800860087010130810741310318810A6E29E0
:1002A8003F0886008701403FC100413FC200410826
:1002B8008400420885000008C300C4014308F20016
:1002C8004408F3003E08F5003D08F4008131CE21D2
:1002D80080314A290800F601F11F732974297B2906
:1002E800F009F109F00A0319F10AF601F60AF31FF9
:1002F8007E297F298829F209F309F20A0319F30AEA
:100308000130F4007408F606F701F801700871046A
:1003180003198F299029BF29F501F50A9C29013075
:10032800F035F10D890B94290130F4007408F507B4
:10033800F11F9F29A02993290130F735F80D890B62
:10034800A12971087302031DAB2970087202031CEE
:10035800AE29AF29B4297008F2027108F33B77146B
:100368000130F136F00C890BB5290130F502031D77
:10037800BE29BF29A02976080319C329C429C92978
:10038800F709F809F70A0319F80A7808F100770855
:10039800F0000800740875040319D329D429DA2950
:1003A80074087504031DD929DA29DF2972088431F4
:1003B800192481312A2A7408860075088700493172
:1003C800160001040319E929EA290A2A7408860093
:1003D800750887004931403FF600413FF70074082F
:1003E8008600750887004231403FF800413FF90018
:1003F8007908803AFA007708803A7A02031D062ABB
:10040800760878020318092A0A2A2A2A7408860014
:100418007508870042317408840075088500403FDC
:100428000007F6000131413F003DF70076088600DD
:1004380077088700720881007408860075088700AD
:1004480042310130810741310318810A0800F60161
:10045800F31F2F2A302A372AF209F309F20A03195F
:10046800F30AF601F60AF11F3A2A3B2A402AF00954
:10047800F109F00A0319F10A700871040319452AF1
:10048800462A6F2AF501F50A522A0130F035F10D96
:10049800890B4A2A0130F4007408F507F11F552A20
:1004A800562A492A71087302031D5C2A70087202D1
:1004B800031C5F2A602A642A7008F2027108F33B61
:1004C8000130F136F00C890B652A0130F502031D65
:1004D8006E2A6F2A562A76080319732A742A792AEB
:1004E800F209F309F20A0319F30A7308F100720812
:1004F800F00008004001AA1B822A832A882A2A08B9
:10050800AE002908AD008A2AAD01AE01AB01AC01ED
:100518009E2A2030F2000030F30040012708F50041
:100528002608F4008131CE21823101304001AB0729
:100538000030AC3D2C08803AFD002E08803A7D0240
:10054800031DA82A2D082B02031CAB2AAC2A8D2ACE
:1005580040012708FC002608FB0028088231E42215
:10056800823108008331AE2382318B170B174E017D
:100578008C1EBF2AC02ABB2A031040019A1D0314EF
:100588000318C72ACA2A40019A15CC2A40019A1191
:1005980012308331D423823170084001E7003730AC
:1005A800D3008430D4006708D800D9015808D50092
:1005B8005908D6008331E6238231BB2A80311428BA
:1005C8004001A500A301A401FC2A2208A000A10162
:1005D8002008F2002108F3007C08F5007B08F400ED
:1005E8008131CE21823101304001A3070030A43D82
:1005F80023082507A0002008860087010108A2001B
:100608002208031D082B092BE92A0800083042019B
:100618009F0080309D0024309E0067309B009C0125
:100628000030F0000030F10084312B248331003099
:10063800F0000030F1008431252483310030F000CF
:100648000030F1008431312483314001E801080091
:1006580040014E08D2004D08D1003D2B4C08BE0089
:100668004B08BD005130BF004F08C0008031E52065
:100678008331400151088400520885001200031D8F
:10068800462B472B322BCB01CC01080040019801A7
:100698009A013F3092002730940037307E01CE0017
:1006A8003730B800B901CF01BA01D0013730BB00EB
:1006B8003F30D1003F30BC003F30D2000F30A400A3
:1006C800080041018C018D018E018F019201930177
:1006D80098019A019F0142018C018D018E018F01C1
:1006E80090019201930194019501960197010330BD
:1006F80098008430910008007808803AF90080302A
:100708007902031D892B0130770203188C2B8D2B5E
:10071800992B7709F9007809FA00F90A0319FA0AF6
:100728007908F7007A08F800992B080049304B013E
:100738009F00C2309D009C014E018C1296163C30E1
:10074800F0000430F10084311F24833180304B01E4
:100758009E00080084310024833183314A23833189
:1007680084310A24833183316523833183319A2389
:10077800833183310A23833108004E018C12C23041
:100788004B019D009C014001600861040319CD2BB9
:10079800CE2BD32B61088A0060080A008331080039
:1007A800F200720841019F004201911711131114C0
:1007B8001118DF2BE02BDC2B41011E08F1001D086E
:1007C800F000080055304001D7000030CB00CC00C5
:1007D8005408CE005308CD005730CF0083312C2366
:1007E80083310800F0004E010F1EFB2BFC2BF72B6A
:1007F800700842019A0008004F019601970198017C
:1008080099019A019B019C019D01080060305101EA
:100818008D008F019101023093009201080064005D
:1008280080010131890B142C0034F10071088331E7
:10083800F6238431080071084001E1007008E000E7
:10084800080071084001DD007008DC00080071082C
:100858004001DF007008DE00080071084001DB007D
:100868007008DA000800253464340D340A34003482
:02087800080076
:020000040001F9
:08000000FF3FFF3FFF3FFF3F00
:0A000E00EC3FFF3F9F3FFF3FFF3F25
:00000001FF
